{
  "abi": [
    {
      "inputs": [
        {
          "internalType": "address",
          "name": "_executor",
          "type": "address"
        },
        {
          "internalType": "address",
          "name": "wethAddress",
          "type": "address"
        }
      ],
      "stateMutability": "payable",
      "type": "constructor"
    },
    {
      "stateMutability": "payable",
      "type": "fallback"
    },
    {
      "inputs": [
        {
          "internalType": "uint256",
          "name": "wethAmtIn",
          "type": "uint256"
        },
        {
          "internalType": "uint8",
          "name": "firstMarket",
          "type": "uint8"
        },
        {
          "internalType": "address",
          "name": "mutePoolAddress",
          "type": "address"
        },
        {
          "internalType": "bytes",
          "name": "mutePayload",
          "type": "bytes"
        }
      ],
      "name": "atomicSwapWeth",
      "outputs": [],
      "stateMutability": "payable",
      "type": "function"
    },
    {
      "inputs": [
        {
          "internalType": "address payable",
          "name": "_to",
          "type": "address"
        },
        {
          "internalType": "uint256",
          "name": "_value",
          "type": "uint256"
        },
        {
          "internalType": "bytes",
          "name": "_data",
          "type": "bytes"
        }
      ],
      "name": "call",
      "outputs": [
        {
          "internalType": "bytes",
          "name": "",
          "type": "bytes"
        }
      ],
      "stateMutability": "payable",
      "type": "function"
    },
    {
      "inputs": [
        {
          "internalType": "uint256",
          "name": "amount",
          "type": "uint256"
        }
      ],
      "name": "claimETH",
      "outputs": [],
      "stateMutability": "nonpayable",
      "type": "function"
    },
    {
      "inputs": [
        {
          "internalType": "uint256",
          "name": "amount",
          "type": "uint256"
        }
      ],
      "name": "claimWETH",
      "outputs": [],
      "stateMutability": "nonpayable",
      "type": "function"
    },
    {
      "stateMutability": "payable",
      "type": "receive"
    }
  ],
  "bytecode": {
    "object": "0x60c0604052604051610ee5380380610ee5833981016040819052610022916100e2565b336080526001600160a01b0382811660a05260008055600180546001600160a01b03191691831691909117905534156100bf57600160009054906101000a90046001600160a01b03166001600160a01b031663d0e30db0346040518263ffffffff1660e01b81526004016000604051808303818588803b1580156100a557600080fd5b505af11580156100b9573d6000803e3d6000fd5b50505050505b5050610115565b80516001600160a01b03811681146100dd57600080fd5b919050565b600080604083850312156100f557600080fd5b6100fe836100c6565b915061010c602084016100c6565b90509250929050565b60805160a051610d9761014e600039600081816102cd01526102ff01526000818160d00152818161020c015261060c0152610d976000f3fe6080604052600436106100405760003560e01c80631e6c929d146100495780636dbf2fa014610069578063ea29d01014610092578063fe96973a146100a557005b3661004757005b005b34801561005557600080fd5b50610047610064366004610989565b6100c5565b61007c610077366004610a03565b6101ff565b6040516100899190610aaf565b60405180910390f35b6100476100a0366004610ac9565b6102c2565b3480156100b157600080fd5b506100476100c0366004610989565b610601565b336001600160a01b037f000000000000000000000000000000000000000000000000000000000000000016146100fa57600080fd5b6001546040516370a0823160e01b81523060048201526000916001600160a01b0316906370a0823190602401602060405180830381865afa158015610143573d6000803e3d6000fd5b505050506040513d601f19601f820116820180604052508101906101679190610b42565b6001549091506001600160a01b031663a9059cbb33838510610189578361018b565b845b6040516001600160e01b031960e085901b1681526001600160a01b03909216600483015260248201526044016020604051808303816000875af11580156101d6573d6000803e3d6000fd5b505050506040513d601f19601f820116820180604052508101906101fa9190610b5b565b505050565b6060336001600160a01b037f0000000000000000000000000000000000000000000000000000000000000000161461023657600080fd5b6001600160a01b03851661024957600080fd5b600080866001600160a01b0316868686604051610267929190610b7d565b60006040518083038185875af1925050503d80600081146102a4576040519150601f19603f3d011682016040523d82523d6000602084013e6102a9565b606091505b5091509150816102b857600080fd5b9695505050505050565b336001600160a01b037f00000000000000000000000000000000000000000000000000000000000000001614806103215750326001600160a01b037f000000000000000000000000000000000000000000000000000000000000000016145b61032a57600080fd5b6001546040516370a0823160e01b81523060048201526000916001600160a01b0316906370a0823190602401602060405180830381865afa158015610373573d6000803e3d6000fd5b505050506040513d601f19601f820116820180604052508101906103979190610b42565b90508581116103a582610679565b6103ae88610679565b6040516020016103bf929190610b8d565b604051602081830303815290604052906103f55760405162461bcd60e51b81526004016103ec9190610aaf565b60405180910390fd5b508460ff166000036105355760015460405163a9059cbb60e01b81526001600160a01b038681166004830152602482018990529091169063a9059cbb906044016020604051808303816000875af1158015610454573d6000803e3d6000fd5b505050506040513d601f19601f820116820180604052508101906104789190610b5b565b50600080856001600160a01b03168585604051610496929190610b7d565b6000604051808303816000865af19150503d80600081146104d3576040519150601f19603f3d011682016040523d82523d6000602084013e6104d8565b606091505b5091509150816104f2876001600160a01b0316601461070c565b82604051602001610504929190610c12565b604051602081830303815290604052906105315760405162461bcd60e51b81526004016103ec9190610aaf565b5050505b6001546040516370a0823160e01b81523060048201526000916001600160a01b0316906370a0823190602401602060405180830381865afa15801561057e573d6000803e3d6000fd5b505050506040513d601f19601f820116820180604052508101906105a29190610b42565b90508181116105b082610679565b6105b984610679565b6040516020016105ca929190610c61565b604051602081830303815290604052906105f75760405162461bcd60e51b81526004016103ec9190610aaf565b5050505050505050565b336001600160a01b037f0000000000000000000000000000000000000000000000000000000000000000161461063657600080fd5b4733806108fc838510610649578361064b565b845b6040518115909202916000818181858888f19350505050158015610673573d6000803e3d6000fd5b50505050565b60606000610686836108b1565b600101905060008167ffffffffffffffff8111156106a6576106a6610cde565b6040519080825280601f01601f1916602001820160405280156106d0576020820181803683370190505b5090508181016020015b600019016f181899199a1a9b1b9c1cb0b131b232b360811b600a86061a8153600a85049450846106da57509392505050565b6060600061071b836002610d0a565b610726906002610d21565b67ffffffffffffffff81111561073e5761073e610cde565b6040519080825280601f01601f191660200182016040528015610768576020820181803683370190505b509050600360fc1b8160008151811061078357610783610d34565b60200101906001600160f81b031916908160001a905350600f60fb1b816001815181106107b2576107b2610d34565b60200101906001600160f81b031916908160001a90535060006107d6846002610d0a565b6107e1906001610d21565b90505b6001811115610859576f181899199a1a9b1b9c1cb0b131b232b360811b85600f166010811061081557610815610d34565b1a60f81b82828151811061082b5761082b610d34565b60200101906001600160f81b031916908160001a90535060049490941c9361085281610d4a565b90506107e4565b5083156108a85760405162461bcd60e51b815260206004820181905260248201527f537472696e67733a20686578206c656e67746820696e73756666696369656e7460448201526064016103ec565b90505b92915050565b60008072184f03e93ff9f4daa797ed6e38ed64bf6a1f0160401b83106108f05772184f03e93ff9f4daa797ed6e38ed64bf6a1f0160401b830492506040015b6d04ee2d6d415b85acef8100000000831061091c576d04ee2d6d415b85acef8100000000830492506020015b662386f26fc10000831061093a57662386f26fc10000830492506010015b6305f5e1008310610952576305f5e100830492506008015b612710831061096657612710830492506004015b60648310610978576064830492506002015b600a83106108ab5760010192915050565b60006020828403121561099b57600080fd5b5035919050565b6001600160a01b03811681146109b757600080fd5b50565b60008083601f8401126109cc57600080fd5b50813567ffffffffffffffff8111156109e457600080fd5b6020830191508360208285010111156109fc57600080fd5b9250929050565b60008060008060608587031215610a1957600080fd5b8435610a24816109a2565b935060208501359250604085013567ffffffffffffffff811115610a4757600080fd5b610a53878288016109ba565b95989497509550505050565b60005b83811015610a7a578181015183820152602001610a62565b50506000910152565b60008151808452610a9b816020860160208601610a5f565b601f01601f19169290920160200192915050565b602081526000610ac26020830184610a83565b9392505050565b600080600080600060808688031215610ae157600080fd5b85359450602086013560ff81168114610af957600080fd5b93506040860135610b09816109a2565b9250606086013567ffffffffffffffff811115610b2557600080fd5b610b31888289016109ba565b969995985093965092949392505050565b600060208284031215610b5457600080fd5b5051919050565b600060208284031215610b6d57600080fd5b815180151581146108a857600080fd5b8183823760009101908152919050565b7f6e6f6e20656e6f75676820776574682062616c616e636520746f20737761703a81526f2063757272656e742062616c616e636560801b602082015260008351610bde816030850160208801610a5f565b671c995c5d5a5c995960c21b6030918401918201528351610c06816038840160208801610a5f565b01603801949350505050565b70036baba329039bbb0b8103330b4b632b21607d1b815260008351610c3e816011850160208801610a5f565b835190830190610c55816011840160208801610a5f565b01601101949350505050565b7f6e6f6e2070726f66697461626c6520737761703a2061667465722062616c616e815261636560f01b602082015260008351610ca4816022850160208801610a5f565b6d6265666f72652062616c616e636560901b6022918401918201528351610cd2816030840160208801610a5f565b01603001949350505050565b634e487b7160e01b600052604160045260246000fd5b634e487b7160e01b600052601160045260246000fd5b80820281158282048414176108ab576108ab610cf4565b808201808211156108ab576108ab610cf4565b634e487b7160e01b600052603260045260246000fd5b600081610d5957610d59610cf4565b50600019019056fea264697066735822122005c629ae17c15978e708bd64c9b5bfa311da4e2a8157892c20bedf76347e6ec564736f6c63430008110033",
    "linkReferences": {}
  },
  "methodIdentifiers": {
    "atomicSwapWeth(uint256,uint8,address,bytes)": "ea29d010",
    "call(address,uint256,bytes)": "6dbf2fa0",
    "claimETH(uint256)": "fe96973a",
    "claimWETH(uint256)": "1e6c929d"
  },
  "id": 0
}