{
  "abi": [
    {
      "inputs": [
        {
          "internalType": "contract UniswapV2Factory",
          "name": "_uniswapFactory",
          "type": "address"
        },
        {
          "internalType": "uint256",
          "name": "_start",
          "type": "uint256"
        },
        {
          "internalType": "uint256",
          "name": "_stop",
          "type": "uint256"
        }
      ],
      "name": "getPairsByIndexRange",
      "outputs": [
        {
          "internalType": "address[3][]",
          "name": "",
          "type": "address[3][]"
        }
      ],
      "stateMutability": "view",
      "type": "function"
    },
    {
      "inputs": [
        {
          "internalType": "contract IUniswapV2Pair[]",
          "name": "_pairs",
          "type": "address[]"
        }
      ],
      "name": "getReservesByPairs",
      "outputs": [
        {
          "internalType": "uint256[3][]",
          "name": "",
          "type": "uint256[3][]"
        }
      ],
      "stateMutability": "view",
      "type": "function"
    }
  ],
  "bytecode": {
    "object": "0x608060405234801561001057600080fd5b506108da806100206000396000f3fe608060405234801561001057600080fd5b50600436106100365760003560e01c80634dbf0f391461003b578063ab2217e414610064575b600080fd5b61004e6100493660046105cb565b610084565b60405161005b9190610640565b60405180910390f35b6100776100723660046106c2565b610245565b60405161005b91906106f7565b606060008267ffffffffffffffff8111156100a1576100a161075d565b6040519080825280602002602001820160405280156100da57816020015b6100c76105ad565b8152602001906001900390816100bf5790505b50905060005b8381101561023b578484828181106100fa576100fa610773565b905060200201602081019061010f9190610789565b6001600160a01b0316630902f1ac6040518163ffffffff1660e01b8152600401606060405180830381865afa15801561014c573d6000803e3d6000fd5b505050506040513d601f19601f8201168201806040525081019061017091906107c9565b826001600160701b03169250816001600160701b031691508063ffffffff1690508484815181106101a3576101a3610773565b60200260200101516000600381106101bd576101bd610773565b602002018585815181106101d3576101d3610773565b60200260200101516001600381106101ed576101ed610773565b6020020186868151811061020357610203610773565b602002602001015160026003811061021d5761021d610773565b602002019290925291905252806102338161082f565b9150506100e0565b5090505b92915050565b60606000846001600160a01b031663574f2ba36040518163ffffffff1660e01b8152600401602060405180830381865afa158015610287573d6000803e3d6000fd5b505050506040513d601f19601f820116820180604052508101906102ab9190610848565b9050808311156102b9578092505b8383101561030d5760405162461bcd60e51b815260206004820181905260248201527f73746172742063616e6e6f7420626520686967686572207468616e2073746f70604482015260640160405180910390fd5b60006103198585610861565b905060008167ffffffffffffffff8111156103365761033661075d565b60405190808252806020026020018201604052801561036f57816020015b61035c6105ad565b8152602001906001900390816103545790505b50905060005b828110156105a25760006001600160a01b038916631e3dd18b610398848b610874565b6040518263ffffffff1660e01b81526004016103b691815260200190565b602060405180830381865afa1580156103d3573d6000803e3d6000fd5b505050506040513d601f19601f820116820180604052508101906103f79190610887565b9050806001600160a01b0316630dfe16816040518163ffffffff1660e01b8152600401602060405180830381865afa158015610437573d6000803e3d6000fd5b505050506040513d601f19601f8201168201806040525081019061045b9190610887565b83838151811061046d5761046d610773565b602002602001015160006003811061048757610487610773565b60200201906001600160a01b031690816001600160a01b031681525050806001600160a01b031663d21220a76040518163ffffffff1660e01b8152600401602060405180830381865afa1580156104e2573d6000803e3d6000fd5b505050506040513d601f19601f820116820180604052508101906105069190610887565b83838151811061051857610518610773565b602002602001015160016003811061053257610532610773565b60200201906001600160a01b031690816001600160a01b0316815250508083838151811061056257610562610773565b602002602001015160026003811061057c5761057c610773565b6001600160a01b039092166020929092020152508061059a8161082f565b915050610375565b509695505050505050565b60405180606001604052806003906020820280368337509192915050565b600080602083850312156105de57600080fd5b823567ffffffffffffffff808211156105f657600080fd5b818501915085601f83011261060a57600080fd5b81358181111561061957600080fd5b8660208260051b850101111561062e57600080fd5b60209290920196919550909350505050565b602080825282518282018190526000919084820190604085019084805b8281101561069d57845184835b60038110156106875782518252918801919088019060010161066a565b505050938501936060939093019260010161065d565b5091979650505050505050565b6001600160a01b03811681146106bf57600080fd5b50565b6000806000606084860312156106d757600080fd5b83356106e2816106aa565b95602085013595506040909401359392505050565b602080825282518282018190526000919084820190604085019084805b8281101561069d57845184835b60038110156107475782516001600160a01b031682529188019190880190600101610721565b5050509385019360609390930192600101610714565b634e487b7160e01b600052604160045260246000fd5b634e487b7160e01b600052603260045260246000fd5b60006020828403121561079b57600080fd5b81356107a6816106aa565b9392505050565b80516001600160701b03811681146107c457600080fd5b919050565b6000806000606084860312156107de57600080fd5b6107e7846107ad565b92506107f5602085016107ad565b9150604084015163ffffffff8116811461080e57600080fd5b809150509250925092565b634e487b7160e01b600052601160045260246000fd5b60006001820161084157610841610819565b5060010190565b60006020828403121561085a57600080fd5b5051919050565b8181038181111561023f5761023f610819565b8082018082111561023f5761023f610819565b60006020828403121561089957600080fd5b81516107a6816106aa56fea264697066735822122033978891502c94938f6a4c5c116513375ffc75125c0eb36c2f90ebca8ae8dbe564736f6c63430008110033",
    "linkReferences": {}
  },
  "methodIdentifiers": {
    "getPairsByIndexRange(address,uint256,uint256)": "ab2217e4",
    "getReservesByPairs(address[])": "4dbf0f39"
  },
  "id": 1
}