{
  "abi": [
    {
      "inputs": [
        {
          "internalType": "address",
          "name": "_executor",
          "type": "address"
        },
        {
          "internalType": "address",
          "name": "wethAddress",
          "type": "address"
        }
      ],
      "stateMutability": "payable",
      "type": "constructor"
    },
    {
      "stateMutability": "payable",
      "type": "fallback"
    },
    {
      "inputs": [
        {
          "internalType": "address payable",
          "name": "_to",
          "type": "address"
        },
        {
          "internalType": "uint256",
          "name": "_value",
          "type": "uint256"
        },
        {
          "internalType": "bytes",
          "name": "_data",
          "type": "bytes"
        }
      ],
      "name": "call",
      "outputs": [
        {
          "internalType": "bytes",
          "name": "",
          "type": "bytes"
        }
      ],
      "stateMutability": "payable",
      "type": "function"
    },
    {
      "inputs": [
        {
          "internalType": "uint256",
          "name": "amount",
          "type": "uint256"
        }
      ],
      "name": "claimETH",
      "outputs": [],
      "stateMutability": "nonpayable",
      "type": "function"
    },
    {
      "inputs": [
        {
          "internalType": "uint256",
          "name": "amount",
          "type": "uint256"
        }
      ],
      "name": "claimWETH",
      "outputs": [],
      "stateMutability": "nonpayable",
      "type": "function"
    },
    {
      "inputs": [
        {
          "components": [
            {
              "internalType": "uint256",
              "name": "wethAmountToFirstMarket",
              "type": "uint256"
            },
            {
              "internalType": "uint256",
              "name": "ethAmountToCoinbase",
              "type": "uint256"
            },
            {
              "internalType": "address[]",
              "name": "targets",
              "type": "address[]"
            },
            {
              "internalType": "bytes[]",
              "name": "payloads",
              "type": "bytes[]"
            }
          ],
          "internalType": "struct IFlashBotsRouter.UniswapWethParams",
          "name": "params",
          "type": "tuple"
        },
        {
          "internalType": "bool",
          "name": "returnProfit",
          "type": "bool"
        }
      ],
      "name": "uniswapWeth",
      "outputs": [],
      "stateMutability": "payable",
      "type": "function"
    },
    {
      "stateMutability": "payable",
      "type": "receive"
    }
  ],
  "bytecode": {
    "object": "0x60c060405260405161124c38038061124c833981016040819052610022916100e2565b336080526001600160a01b0382811660a05260008055600180546001600160a01b03191691831691909117905534156100bf57600160009054906101000a90046001600160a01b03166001600160a01b031663d0e30db0346040518263ffffffff1660e01b81526004016000604051808303818588803b1580156100a557600080fd5b505af11580156100b9573d6000803e3d6000fd5b50505050505b5050610115565b80516001600160a01b03811681146100dd57600080fd5b919050565b600080604083850312156100f557600080fd5b6100fe836100c6565b915061010c602084016100c6565b90509250929050565b60805160a0516110fe61014e6000396000818161020a015261023c01526000818160d0015281816107db015261089c01526110fe6000f3fe6080604052600436106100405760003560e01c80631e6c929d146100495780633662d221146100695780636dbf2fa01461007c578063fe96973a146100a557005b3661004757005b005b34801561005557600080fd5b50610047610064366004610c19565b6100c5565b610047610077366004610c43565b6101ff565b61008f61008a366004610c9a565b6107ce565b60405161009c9190610d7f565b60405180910390f35b3480156100b157600080fd5b506100476100c0366004610c19565b610891565b336001600160a01b037f000000000000000000000000000000000000000000000000000000000000000016146100fa57600080fd5b6001546040516370a0823160e01b81523060048201526000916001600160a01b0316906370a0823190602401602060405180830381865afa158015610143573d6000803e3d6000fd5b505050506040513d601f19601f820116820180604052508101906101679190610d99565b6001549091506001600160a01b031663a9059cbb33838510610189578361018b565b845b6040516001600160e01b031960e085901b1681526001600160a01b03909216600483015260248201526044016020604051808303816000875af11580156101d6573d6000803e3d6000fd5b505050506040513d601f19601f820116820180604052508101906101fa9190610db2565b505050565b336001600160a01b037f000000000000000000000000000000000000000000000000000000000000000016148061025e5750326001600160a01b037f000000000000000000000000000000000000000000000000000000000000000016145b61026757600080fd5b81356020830135600061027d6040860186610dcf565b8080602002602001604051908101604052809392919081815260200183836020028082843760009201829052509394506102be925050506060870187610dcf565b6102c791610e67565b9050805182511461031f5760405162461bcd60e51b815260206004820152601f60248201527f746172676574207061796c6f6164206c656e676874206e6f74206d617463680060448201526064015b60405180910390fd5b6001546040516370a0823160e01b81523060048201526000916001600160a01b0316906370a0823190602401602060405180830381865afa158015610368573d6000803e3d6000fd5b505050506040513d601f19601f8201168201806040525081019061038c9190610d99565b90508481116103dd5760405162461bcd60e51b815260206004820152601860248201527f6e6f7420656e6f7567687420776574682062616c616e636500000000000000006044820152606401610316565b60015483516001600160a01b039091169063a9059cbb90859060009061040557610405610f3c565b6020026020010151876040518363ffffffff1660e01b815260040161043f9291906001600160a01b03929092168252602082015260400190565b6020604051808303816000875af115801561045e573d6000803e3d6000fd5b505050506040513d601f19601f820116820180604052508101906104829190610db2565b5060005b83518110156105a6576000808583815181106104a4576104a4610f3c565b60200260200101516001600160a01b03168584815181106104c7576104c7610f3c565b60200260200101516040516104dc9190610f52565b6000604051808303816000865af19150503d8060008114610519576040519150601f19603f3d011682016040523d82523d6000602084013e61051e565b606091505b50915091508161055187858151811061053957610539610f3c565b60200260200101516001600160a01b03166014610909565b82604051602001610563929190610f6e565b604051602081830303815290604052906105905760405162461bcd60e51b81526004016103169190610d7f565b505050808061059e90610fce565b915050610486565b506001546040516370a0823160e01b81523060048201526000916001600160a01b0316906370a0823190602401602060405180830381865afa1580156105f0573d6000803e3d6000fd5b505050506040513d601f19601f820116820180604052508101906106149190610d99565b90506106208583610fe7565b811161062b82610aae565b61063484610aae565b604051602001610645929190610ffa565b604051602081830303815290604052906106725760405162461bcd60e51b81526004016103169190610d7f565b5047858110156106f75760006106888288611077565b600154604051632e1a7d4d60e01b8152600481018390529192506001600160a01b031690632e1a7d4d90602401600060405180830381600087803b1580156106cf57600080fd5b505af11580156106e3573d6000803e3d6000fd5b5050505080836106f39190611077565b9250505b851561072c57604051419087156108fc029088906000818181858888f1935050505015801561072a573d6000803e3d6000fd5b505b87156107bd57600080546107409084611077565b60015460405163a9059cbb60e01b8152336004820152602481018390529192506001600160a01b03169063a9059cbb906044016020604051808303816000875af1158015610792573d6000803e3d6000fd5b505050506040513d601f19601f820116820180604052508101906107b69190610db2565b50506107c3565b60008290555b505050505050505050565b6060336001600160a01b037f0000000000000000000000000000000000000000000000000000000000000000161461080557600080fd5b6001600160a01b03851661081857600080fd5b600080866001600160a01b031686868660405161083692919061108a565b60006040518083038185875af1925050503d8060008114610873576040519150601f19603f3d011682016040523d82523d6000602084013e610878565b606091505b50915091508161088757600080fd5b9695505050505050565b336001600160a01b037f000000000000000000000000000000000000000000000000000000000000000016146108c657600080fd5b4733806108fc8385106108d957836108db565b845b6040518115909202916000818181858888f19350505050158015610903573d6000803e3d6000fd5b50505050565b6060600061091883600261109a565b610923906002610fe7565b67ffffffffffffffff81111561093b5761093b610e20565b6040519080825280601f01601f191660200182016040528015610965576020820181803683370190505b509050600360fc1b8160008151811061098057610980610f3c565b60200101906001600160f81b031916908160001a905350600f60fb1b816001815181106109af576109af610f3c565b60200101906001600160f81b031916908160001a90535060006109d384600261109a565b6109de906001610fe7565b90505b6001811115610a56576f181899199a1a9b1b9c1cb0b131b232b360811b85600f1660108110610a1257610a12610f3c565b1a60f81b828281518110610a2857610a28610f3c565b60200101906001600160f81b031916908160001a90535060049490941c93610a4f816110b1565b90506109e1565b508315610aa55760405162461bcd60e51b815260206004820181905260248201527f537472696e67733a20686578206c656e67746820696e73756666696369656e746044820152606401610316565b90505b92915050565b60606000610abb83610b41565b600101905060008167ffffffffffffffff811115610adb57610adb610e20565b6040519080825280601f01601f191660200182016040528015610b05576020820181803683370190505b5090508181016020015b600019016f181899199a1a9b1b9c1cb0b131b232b360811b600a86061a8153600a8504945084610b0f57509392505050565b60008072184f03e93ff9f4daa797ed6e38ed64bf6a1f0160401b8310610b805772184f03e93ff9f4daa797ed6e38ed64bf6a1f0160401b830492506040015b6d04ee2d6d415b85acef81000000008310610bac576d04ee2d6d415b85acef8100000000830492506020015b662386f26fc100008310610bca57662386f26fc10000830492506010015b6305f5e1008310610be2576305f5e100830492506008015b6127108310610bf657612710830492506004015b60648310610c08576064830492506002015b600a8310610aa85760010192915050565b600060208284031215610c2b57600080fd5b5035919050565b8015158114610c4057600080fd5b50565b60008060408385031215610c5657600080fd5b823567ffffffffffffffff811115610c6d57600080fd5b830160808186031215610c7f57600080fd5b91506020830135610c8f81610c32565b809150509250929050565b60008060008060608587031215610cb057600080fd5b84356001600160a01b0381168114610cc757600080fd5b935060208501359250604085013567ffffffffffffffff80821115610ceb57600080fd5b818701915087601f830112610cff57600080fd5b813581811115610d0e57600080fd5b886020828501011115610d2057600080fd5b95989497505060200194505050565b60005b83811015610d4a578181015183820152602001610d32565b50506000910152565b60008151808452610d6b816020860160208601610d2f565b601f01601f19169290920160200192915050565b602081526000610d926020830184610d53565b9392505050565b600060208284031215610dab57600080fd5b5051919050565b600060208284031215610dc457600080fd5b8151610aa581610c32565b6000808335601e19843603018112610de657600080fd5b83018035915067ffffffffffffffff821115610e0157600080fd5b6020019150600581901b3603821315610e1957600080fd5b9250929050565b634e487b7160e01b600052604160045260246000fd5b604051601f8201601f1916810167ffffffffffffffff81118282101715610e5f57610e5f610e20565b604052919050565b600067ffffffffffffffff80841115610e8257610e82610e20565b8360051b6020610e93818301610e36565b868152918501918181019036841115610eab57600080fd5b865b84811015610f3057803586811115610ec55760008081fd5b8801601f3681830112610ed85760008081fd5b813588811115610eea57610eea610e20565b610efb818301601f19168801610e36565b91508082523687828501011115610f125760008081fd5b80878401888401376000908201870152845250918301918301610ead565b50979650505050505050565b634e487b7160e01b600052603260045260246000fd5b60008251610f64818460208701610d2f565b9190910192915050565b6b039bbb0b8103330b4b632b2160a51b815260008351610f9581600c850160208801610d2f565b835190830190610fac81600c840160208801610d2f565b01600c01949350505050565b634e487b7160e01b600052601160045260246000fd5b600060018201610fe057610fe0610fb8565b5060010190565b80820180821115610aa857610aa8610fb8565b7f6e6f6e2070726f66697461626c6520737761703a2061667465722062616c616e815261636560f01b60208201526000835161103d816022850160208801610d2f565b6d6265666f72652062616c616e636560901b602291840191820152835161106b816030840160208801610d2f565b01603001949350505050565b81810381811115610aa857610aa8610fb8565b8183823760009101908152919050565b8082028115828204841417610aa857610aa8610fb8565b6000816110c0576110c0610fb8565b50600019019056fea264697066735822122022c5f7206154b1231e104e6ce46c4897e56ba8c34b7797b022dee59f0715231e64736f6c63430008110033",
    "linkReferences": {}
  },
  "methodIdentifiers": {
    "call(address,uint256,bytes)": "6dbf2fa0",
    "claimETH(uint256)": "fe96973a",
    "claimWETH(uint256)": "1e6c929d",
    "uniswapWeth((uint256,uint256,address[],bytes[]),bool)": "3662d221"
  },
  "id": 0
}